{
  "_format": "hh-sol-artifact-1",
  "contractName": "MyToken",
  "sourceName": "contracts/MyToken.sol",
  "abi": [
    {
      "inputs": [],
      "stateMutability": "nonpayable",
      "type": "constructor"
    },
    {
      "inputs": [
        {
          "internalType": "uint256",
          "name": "amount",
          "type": "uint256"
        }
      ],
      "name": "burn",
      "outputs": [],
      "stateMutability": "nonpayable",
      "type": "function"
    },
    {
      "inputs": [],
      "name": "getBalance",
      "outputs": [
        {
          "internalType": "uint256",
          "name": "",
          "type": "uint256"
        }
      ],
      "stateMutability": "view",
      "type": "function"
    },
    {
      "inputs": [
        {
          "internalType": "address",
          "name": "to",
          "type": "address"
        },
        {
          "internalType": "uint256",
          "name": "amount",
          "type": "uint256"
        }
      ],
      "name": "mint",
      "outputs": [],
      "stateMutability": "nonpayable",
      "type": "function"
    },
    {
      "inputs": [],
      "name": "tokenAbbr",
      "outputs": [
        {
          "internalType": "string",
          "name": "",
          "type": "string"
        }
      ],
      "stateMutability": "view",
      "type": "function"
    },
    {
      "inputs": [],
      "name": "tokenName",
      "outputs": [
        {
          "internalType": "string",
          "name": "",
          "type": "string"
        }
      ],
      "stateMutability": "view",
      "type": "function"
    },
    {
      "inputs": [
        {
          "internalType": "address",
          "name": "to",
          "type": "address"
        },
        {
          "internalType": "uint256",
          "name": "amount",
          "type": "uint256"
        }
      ],
      "name": "transferTo",
      "outputs": [],
      "stateMutability": "nonpayable",
      "type": "function"
    }
  ],
  "bytecode": "0x60806040526040518060400160405280600781526020017f4d79546f6b656e00000000000000000000000000000000000000000000000000815250600090816200004a919062000361565b506040518060400160405280600381526020017f4d595400000000000000000000000000000000000000000000000000000000008152506001908162000091919062000361565b503480156200009f57600080fd5b5033600260006101000a81548173ffffffffffffffffffffffffffffffffffffffff021916908373ffffffffffffffffffffffffffffffffffffffff16021790555062000448565b600081519050919050565b7f4e487b7100000000000000000000000000000000000000000000000000000000600052604160045260246000fd5b7f4e487b7100000000000000000000000000000000000000000000000000000000600052602260045260246000fd5b600060028204905060018216806200016957607f821691505b6020821081036200017f576200017e62000121565b5b50919050565b60008190508160005260206000209050919050565b60006020601f8301049050919050565b600082821b905092915050565b600060088302620001e97fffffffffffffffffffffffffffffffffffffffffffffffffffffffffffffffff82620001aa565b620001f58683620001aa565b95508019841693508086168417925050509392505050565b6000819050919050565b6000819050919050565b6000620002426200023c62000236846200020d565b62000217565b6200020d565b9050919050565b6000819050919050565b6200025e8362000221565b620002766200026d8262000249565b848454620001b7565b825550505050565b600090565b6200028d6200027e565b6200029a81848462000253565b505050565b5b81811015620002c257620002b660008262000283565b600181019050620002a0565b5050565b601f8211156200031157620002db8162000185565b620002e6846200019a565b81016020851015620002f6578190505b6200030e62000305856200019a565b8301826200029f565b50505b505050565b600082821c905092915050565b6000620003366000198460080262000316565b1980831691505092915050565b600062000351838362000323565b9150826002028217905092915050565b6200036c82620000e7565b67ffffffffffffffff811115620003885762000387620000f2565b5b62000394825462000150565b620003a1828285620002c6565b600060209050601f831160018114620003d95760008415620003c4578287015190505b620003d0858262000343565b86555062000440565b601f198416620003e98662000185565b60005b828110156200041357848901518255600182019150602085019450602081019050620003ec565b868310156200043357848901516200042f601f89168262000323565b8355505b6001600288020188555050505b505050505050565b61097c80620004586000396000f3fe608060405234801561001057600080fd5b50600436106100625760003560e01c806312065fe0146100675780632ccb1b301461008557806340c10f19146100a157806342966c68146100bd57806366c8db34146100d95780636c02a931146100f7575b600080fd5b61006f610115565b60405161007c9190610588565b60405180910390f35b61009f600480360381019061009a9190610632565b61015c565b005b6100bb60048036038101906100b69190610632565b61028e565b005b6100d760048036038101906100d29190610672565b610378565b005b6100e1610453565b6040516100ee919061072f565b60405180910390f35b6100ff6104e1565b60405161010c919061072f565b60405180910390f35b6000600360003373ffffffffffffffffffffffffffffffffffffffff1673ffffffffffffffffffffffffffffffffffffffff16815260200190815260200160002054905090565b80600360003373ffffffffffffffffffffffffffffffffffffffff1673ffffffffffffffffffffffffffffffffffffffff1681526020019081526020016000205410156101de576040517f08c379a00000000000000000000000000000000000000000000000000000000081526004016101d5906107c3565b60405180910390fd5b80600360008473ffffffffffffffffffffffffffffffffffffffff1673ffffffffffffffffffffffffffffffffffffffff168152602001908152602001600020600082825461022d9190610812565b9250508190555080600360003373ffffffffffffffffffffffffffffffffffffffff1673ffffffffffffffffffffffffffffffffffffffff16815260200190815260200160002060008282546102839190610846565b925050819055505050565b600260009054906101000a900473ffffffffffffffffffffffffffffffffffffffff1673ffffffffffffffffffffffffffffffffffffffff163373ffffffffffffffffffffffffffffffffffffffff161461031e576040517f08c379a0000000000000000000000000000000000000000000000000000000008152600401610315906108c6565b60405180910390fd5b80600360008473ffffffffffffffffffffffffffffffffffffffff1673ffffffffffffffffffffffffffffffffffffffff168152602001908152602001600020600082825461036d9190610812565b925050819055505050565b80600360003373ffffffffffffffffffffffffffffffffffffffff1673ffffffffffffffffffffffffffffffffffffffff1681526020019081526020016000205410156103fa576040517f08c379a00000000000000000000000000000000000000000000000000000000081526004016103f1906107c3565b60405180910390fd5b80600360003373ffffffffffffffffffffffffffffffffffffffff1673ffffffffffffffffffffffffffffffffffffffff16815260200190815260200160002060008282546104499190610846565b9250508190555050565b6001805461046090610915565b80601f016020809104026020016040519081016040528092919081815260200182805461048c90610915565b80156104d95780601f106104ae576101008083540402835291602001916104d9565b820191906000526020600020905b8154815290600101906020018083116104bc57829003601f168201915b505050505081565b600080546104ee90610915565b80601f016020809104026020016040519081016040528092919081815260200182805461051a90610915565b80156105675780601f1061053c57610100808354040283529160200191610567565b820191906000526020600020905b81548152906001019060200180831161054a57829003601f168201915b505050505081565b6000819050919050565b6105828161056f565b82525050565b600060208201905061059d6000830184610579565b92915050565b600080fd5b600073ffffffffffffffffffffffffffffffffffffffff82169050919050565b60006105d3826105a8565b9050919050565b6105e3816105c8565b81146105ee57600080fd5b50565b600081359050610600816105da565b92915050565b61060f8161056f565b811461061a57600080fd5b50565b60008135905061062c81610606565b92915050565b60008060408385031215610649576106486105a3565b5b6000610657858286016105f1565b92505060206106688582860161061d565b9150509250929050565b600060208284031215610688576106876105a3565b5b60006106968482850161061d565b91505092915050565b600081519050919050565b600082825260208201905092915050565b60005b838110156106d95780820151818401526020810190506106be565b60008484015250505050565b6000601f19601f8301169050919050565b60006107018261069f565b61070b81856106aa565b935061071b8185602086016106bb565b610724816106e5565b840191505092915050565b6000602082019050818103600083015261074981846106f6565b905092915050565b7f496e73756666696369656e742062616c616e636520696e20746865206163636f60008201527f756e740000000000000000000000000000000000000000000000000000000000602082015250565b60006107ad6023836106aa565b91506107b882610751565b604082019050919050565b600060208201905081810360008301526107dc816107a0565b9050919050565b7f4e487b7100000000000000000000000000000000000000000000000000000000600052601160045260246000fd5b600061081d8261056f565b91506108288361056f565b92508282019050808211156108405761083f6107e3565b5b92915050565b60006108518261056f565b915061085c8361056f565b9250828203905081811115610874576108736107e3565b5b92915050565b7f4f6e6c79206f776e65722063616e206d696e7420746f6b656e73000000000000600082015250565b60006108b0601a836106aa565b91506108bb8261087a565b602082019050919050565b600060208201905081810360008301526108df816108a3565b9050919050565b7f4e487b7100000000000000000000000000000000000000000000000000000000600052602260045260246000fd5b6000600282049050600182168061092d57607f821691505b6020821081036109405761093f6108e6565b5b5091905056fea264697066735822122065d5c32b0522cf8b5be0f030b6cb9eead1bd21376061746449e8a8377720aa5864736f6c63430008120033",
  "linkReferences": {},
  "deployedLinkReferences": {}
}